:02000000A52930
:10000800FF00030E8301B1000A08B2008A017008DC
:10001800A2007C08A1007D08A0008B1C1628A30A5A
:100028000319A40A7B212208F0002108FC002008FB
:10003800FD0032088A00310E8300FF0E7F0E090092
:10004800831203130618D2280808113A031D5D28E5
:100058000330AF000030B0003008003C031D3628E4
:100068002F08003C03185A2821308800AD01AE0142
:1000780000302E02031D422864302D020318552833
:10008800061386172F0887001A30FC00F830FD0089
:10009800FD0B4C28FC0B4C280000AD0A0319AE0AD6
:1000A8003C280130AF02031CB0033028061786171E
:1000B800D1280808213A031D7D280A308800AD019F
:1000C800AE0100302E02031D6B28C8302D02031824
:1000D8007C28061786171A30FC00F830FD00FD0B47
:1000E8007328FC0B73280000AD0A0319AE0A6528B3
:1000F800D12808080A3A031DB2280330AF0000309F
:10010800B0003008003C031D8B282F08003C031862
:10011800AF280C308800AD01AE0100302E02031D5F
:100128009728C8302D020318AA28061386172F0807
:1001380087001A30FC00F830FD00FD0BA128FC0BED
:10014800A1280000AD0A0319AE0A91280130AF02B8
:10015800031CB003852806178617D12808080C3A0F
:10016800031DD12811308800AD01AE0100302E02E8
:10017800031DC02864302D020318D12806178617DE
:100188001A30FC00F830FD00FD0BC828FC0BC8280D
:0E0198000000AD0A0319AE0ABA282428080098
:1001A600710DF80DF90D7408F8027508031C750F2A
:1001B600F902F00DF10D0F30FC00710DF80DF90D7F
:1001C6007408701CEC28F8027508031C750FF902F8
:1001D600F128F80775080318750FF907F00DF10DEA
:1001E600FC0BE0287018FD287408F807750803183A
:0801F600750FF9070000080075
:0E01FE00831203132C088A002B0882000800CD
:10020C00831203137408003A031D15297508003A6C
:10021C00031D1529FF30F0007F30F1006E29831289
:10022C000313FD01F901F80171087004031900347E
:10023C0071087506FA00FA1BFD09FB01F51F2B2945
:10024C00F409F509F40A0319F50AF11F3229F0092A
:10025C00F109F00A0319F10A71087504FA00FA1B86
:10026C004729D3207B185A29FD1F0034F009F109C6
:10027C00F00A0319F10AF809F909F80A0319F90A3D
:10028C000034F51F5629F11B52297108F90070082A
:10029C00F800F101F0013A29F101F001F00A003403
:1002AC00F109F009FB0A3729F80A0319F90A74084D
:1002BC007802031D3A2975087902031D3A29F901C0
:1002CC00F801F00A0319F10AF11F3A290000FF3472
:0202DC00080018
:1002DE00FF208A110A128000840AAB0A0319AC0AA5
:0802EE00F003031D6F29080055
:1002F600831203138618A42900302406031D8529BA
:1003060001302306031D8829242000302406031DFE
:100316008E2902302306031D91292420003024064D
:10032600031D972903302306031D9A292420003034
:100336002406031DA02904302306031DA329242017
:040346007B29080007
:10034A0083120313A301A401A501A601A701A80111
:10035A00A901AA01831687018312870183168801DE
:10036A0083128801831606138312061783168613CF
:10037A00831286178316061486148B170B1601131D
:10038A008312861CAF2A1730A7000030A8008030DD
:10039A00F000803028067002031DD5292708003C8A
:1003AA0003183B2A8618E0298617861BDE290613BE
:1003BA00DF2906173B2A8030F000803028067002B9
:1003CA00031DE9292708033C0318EE291130880088
:1003DA00F029213088000A30F4000030F50027089F
:1003EA00F0002808F10006217008A9007108AA0087
:1003FA000A30F4000030F5002708F0002808F10060
:10040A0006217808F0007908F1007008A500710843
:10041A00A600AD01AE0100302E02031D162A3C30A3
:10042A002D020318362A06138617250887001A3064
:10043A00FC00F830FD00FD0B202AFC0B202A0000EE
:10044A0006178613290887001A30FC00F830FD00C9
:10045A00FD0B2D2AFC0B2D2A0000AD0A0319AE0A4A
:10046A00102A0130A702031CA803CC290F30A700C9
:10047A000030A8008030F000803028067002031D8A
:10048A00482A2708003C0318AE2A8618532A8617DA
:10049A00861B512A0613522A0617AE2A8030F0000C
:1004AA00803028067002031D5C2A2708033C0318C3
:1004BA00612A0A308800632A0C3088000A30F40066
:1004CA000030F5002708F0002808F100062170081E
:1004DA00A9007108AA000A30F4000030F5002708C4
:1004EA00F0002808F10006217808F0007908F100E8
:1004FA007008A5007108A600AD01AE0100302E02F9
:10050A00031D892A3C302D020318A92A06138617CF
:10051A00250887001A30FC00F830FD00FD0B932AED
:10052A00FC0B932A000006178613290887001A3045
:10053A00FC00F830FD00FD0BA02AFC0BA02A0000ED
:10054A00AD0A0319AE0A832A0130A702031CA803C5
:08055A003F2AC529C529B02A7A
:02400E004A2F37
:00000001FF
